{
  "_format": "hh-sol-artifact-1",
  "contractName": "Akhil2",
  "sourceName": "contracts/Akhil2.sol",
  "abi": [
    {
      "inputs": [],
      "stateMutability": "nonpayable",
      "type": "constructor"
    },
    {
      "anonymous": false,
      "inputs": [
        {
          "indexed": true,
          "internalType": "address",
          "name": "owner",
          "type": "address"
        },
        {
          "indexed": true,
          "internalType": "address",
          "name": "approved",
          "type": "address"
        },
        {
          "indexed": true,
          "internalType": "uint256",
          "name": "tokenId",
          "type": "uint256"
        }
      ],
      "name": "Approval",
      "type": "event"
    },
    {
      "anonymous": false,
      "inputs": [
        {
          "indexed": true,
          "internalType": "address",
          "name": "owner",
          "type": "address"
        },
        {
          "indexed": true,
          "internalType": "address",
          "name": "operator",
          "type": "address"
        },
        {
          "indexed": false,
          "internalType": "bool",
          "name": "approved",
          "type": "bool"
        }
      ],
      "name": "ApprovalForAll",
      "type": "event"
    },
    {
      "anonymous": false,
      "inputs": [
        {
          "indexed": true,
          "internalType": "address",
          "name": "previousOwner",
          "type": "address"
        },
        {
          "indexed": true,
          "internalType": "address",
          "name": "newOwner",
          "type": "address"
        }
      ],
      "name": "OwnershipTransferred",
      "type": "event"
    },
    {
      "anonymous": false,
      "inputs": [
        {
          "indexed": true,
          "internalType": "address",
          "name": "from",
          "type": "address"
        },
        {
          "indexed": true,
          "internalType": "address",
          "name": "to",
          "type": "address"
        },
        {
          "indexed": true,
          "internalType": "uint256",
          "name": "tokenId",
          "type": "uint256"
        }
      ],
      "name": "Transfer",
      "type": "event"
    },
    {
      "inputs": [
        {
          "internalType": "address",
          "name": "to",
          "type": "address"
        },
        {
          "internalType": "uint256",
          "name": "tokenId",
          "type": "uint256"
        }
      ],
      "name": "approve",
      "outputs": [],
      "stateMutability": "nonpayable",
      "type": "function"
    },
    {
      "inputs": [
        {
          "internalType": "address",
          "name": "owner",
          "type": "address"
        }
      ],
      "name": "balanceOf",
      "outputs": [
        {
          "internalType": "uint256",
          "name": "",
          "type": "uint256"
        }
      ],
      "stateMutability": "view",
      "type": "function"
    },
    {
      "inputs": [],
      "name": "count",
      "outputs": [
        {
          "internalType": "uint256",
          "name": "",
          "type": "uint256"
        }
      ],
      "stateMutability": "view",
      "type": "function"
    },
    {
      "inputs": [
        {
          "internalType": "uint256",
          "name": "tokenId",
          "type": "uint256"
        }
      ],
      "name": "getApproved",
      "outputs": [
        {
          "internalType": "address",
          "name": "",
          "type": "address"
        }
      ],
      "stateMutability": "view",
      "type": "function"
    },
    {
      "inputs": [
        {
          "internalType": "address",
          "name": "owner",
          "type": "address"
        },
        {
          "internalType": "address",
          "name": "operator",
          "type": "address"
        }
      ],
      "name": "isApprovedForAll",
      "outputs": [
        {
          "internalType": "bool",
          "name": "",
          "type": "bool"
        }
      ],
      "stateMutability": "view",
      "type": "function"
    },
    {
      "inputs": [],
      "name": "name",
      "outputs": [
        {
          "internalType": "string",
          "name": "",
          "type": "string"
        }
      ],
      "stateMutability": "view",
      "type": "function"
    },
    {
      "inputs": [],
      "name": "owner",
      "outputs": [
        {
          "internalType": "address",
          "name": "",
          "type": "address"
        }
      ],
      "stateMutability": "view",
      "type": "function"
    },
    {
      "inputs": [
        {
          "internalType": "uint256",
          "name": "tokenId",
          "type": "uint256"
        }
      ],
      "name": "ownerOf",
      "outputs": [
        {
          "internalType": "address",
          "name": "",
          "type": "address"
        }
      ],
      "stateMutability": "view",
      "type": "function"
    },
    {
      "inputs": [
        {
          "internalType": "address",
          "name": "recipient",
          "type": "address"
        },
        {
          "internalType": "string",
          "name": "metadataURI",
          "type": "string"
        }
      ],
      "name": "payToMint",
      "outputs": [
        {
          "internalType": "uint256",
          "name": "",
          "type": "uint256"
        }
      ],
      "stateMutability": "payable",
      "type": "function"
    },
    {
      "inputs": [],
      "name": "renounceOwnership",
      "outputs": [],
      "stateMutability": "nonpayable",
      "type": "function"
    },
    {
      "inputs": [
        {
          "internalType": "address",
          "name": "to",
          "type": "address"
        },
        {
          "internalType": "string",
          "name": "uri",
          "type": "string"
        }
      ],
      "name": "safeMint",
      "outputs": [],
      "stateMutability": "nonpayable",
      "type": "function"
    },
    {
      "inputs": [
        {
          "internalType": "address",
          "name": "from",
          "type": "address"
        },
        {
          "internalType": "address",
          "name": "to",
          "type": "address"
        },
        {
          "internalType": "uint256",
          "name": "tokenId",
          "type": "uint256"
        }
      ],
      "name": "safeTransferFrom",
      "outputs": [],
      "stateMutability": "nonpayable",
      "type": "function"
    },
    {
      "inputs": [
        {
          "internalType": "address",
          "name": "from",
          "type": "address"
        },
        {
          "internalType": "address",
          "name": "to",
          "type": "address"
        },
        {
          "internalType": "uint256",
          "name": "tokenId",
          "type": "uint256"
        },
        {
          "internalType": "bytes",
          "name": "_data",
          "type": "bytes"
        }
      ],
      "name": "safeTransferFrom",
      "outputs": [],
      "stateMutability": "nonpayable",
      "type": "function"
    },
    {
      "inputs": [
        {
          "internalType": "address",
          "name": "operator",
          "type": "address"
        },
        {
          "internalType": "bool",
          "name": "approved",
          "type": "bool"
        }
      ],
      "name": "setApprovalForAll",
      "outputs": [],
      "stateMutability": "nonpayable",
      "type": "function"
    },
    {
      "inputs": [
        {
          "internalType": "bytes4",
          "name": "interfaceId",
          "type": "bytes4"
        }
      ],
      "name": "supportsInterface",
      "outputs": [
        {
          "internalType": "bool",
          "name": "",
          "type": "bool"
        }
      ],
      "stateMutability": "view",
      "type": "function"
    },
    {
      "inputs": [],
      "name": "symbol",
      "outputs": [
        {
          "internalType": "string",
          "name": "",
          "type": "string"
        }
      ],
      "stateMutability": "view",
      "type": "function"
    },
    {
      "inputs": [
        {
          "internalType": "uint256",
          "name": "tokenId",
          "type": "uint256"
        }
      ],
      "name": "tokenURI",
      "outputs": [
        {
          "internalType": "string",
          "name": "",
          "type": "string"
        }
      ],
      "stateMutability": "view",
      "type": "function"
    },
    {
      "inputs": [
        {
          "internalType": "address",
          "name": "from",
          "type": "address"
        },
        {
          "internalType": "address",
          "name": "to",
          "type": "address"
        },
        {
          "internalType": "uint256",
          "name": "tokenId",
          "type": "uint256"
        }
      ],
      "name": "transferFrom",
      "outputs": [],
      "stateMutability": "nonpayable",
      "type": "function"
    },
    {
      "inputs": [
        {
          "internalType": "address",
          "name": "newOwner",
          "type": "address"
        }
      ],
      "name": "transferOwnership",
      "outputs": [],
      "stateMutability": "nonpayable",
      "type": "function"
    }
  ],
  "bytecode": "0x60806040523480156200001157600080fd5b506040518060400160405280600681526020017f416b68696c3200000000000000000000000000000000000000000000000000008152506040518060400160405280600381526020017f414b490000000000000000000000000000000000000000000000000000000000815250816000908051906020019062000096929190620001a6565b508060019080519060200190620000af929190620001a6565b505050620000d2620000c6620000d860201b60201c565b620000e060201b60201c565b620002bb565b600033905090565b6000600760009054906101000a900473ffffffffffffffffffffffffffffffffffffffff16905081600760006101000a81548173ffffffffffffffffffffffffffffffffffffffff021916908373ffffffffffffffffffffffffffffffffffffffff1602179055508173ffffffffffffffffffffffffffffffffffffffff168173ffffffffffffffffffffffffffffffffffffffff167f8be0079c531659141344cd1fd0a4f28419497f9722a3daafe3b4186f6b6457e060405160405180910390a35050565b828054620001b49062000256565b90600052602060002090601f016020900481019282620001d8576000855562000224565b82601f10620001f357805160ff191683800117855562000224565b8280016001018555821562000224579182015b828111156200022357825182559160200191906001019062000206565b5b50905062000233919062000237565b5090565b5b808211156200025257600081600090555060010162000238565b5090565b600060028204905060018216806200026f57607f821691505b602082108114156200028657620002856200028c565b5b50919050565b7f4e487b7100000000000000000000000000000000000000000000000000000000600052602260045260246000fd5b61329c80620002cb6000396000f3fe6080604052600436106101145760003560e01c806370a08231116100a0578063b88d4fde11610064578063b88d4fde146103a4578063c87b56dd146103cd578063d204c45e1461040a578063e985e9c514610433578063f2fde38b1461047057610114565b806370a08231146102d1578063715018a61461030e5780638da5cb5b1461032557806395d89b4114610350578063a22cb4651461037b57610114565b8063095ea7b3116100e7578063095ea7b3146101e957806323b872dd1461021257806342842e0e1461023b578063615fd9e2146102645780636352211e1461029457610114565b806301ffc9a71461011957806306661abd1461015657806306fdde0314610181578063081812fc146101ac575b600080fd5b34801561012557600080fd5b50610140600480360381019061013b91906121b9565b610499565b60405161014d9190612628565b60405180910390f35b34801561016257600080fd5b5061016b61057b565b60405161017891906128c5565b60405180910390f35b34801561018d57600080fd5b5061019661058c565b6040516101a39190612643565b60405180910390f35b3480156101b857600080fd5b506101d360048036038101906101ce919061220b565b61061e565b6040516101e091906125c1565b60405180910390f35b3480156101f557600080fd5b50610210600480360381019061020b919061217d565b6106a3565b005b34801561021e57600080fd5b5061023960048036038101906102349190612023565b6107bb565b005b34801561024757600080fd5b50610262600480360381019061025d9190612023565b61081b565b005b61027e60048036038101906102799190612129565b61083b565b60405161028b91906128c5565b60405180910390f35b3480156102a057600080fd5b506102bb60048036038101906102b6919061220b565b6108bd565b6040516102c891906125c1565b60405180910390f35b3480156102dd57600080fd5b506102f860048036038101906102f39190611fbe565b61096f565b60405161030591906128c5565b60405180910390f35b34801561031a57600080fd5b50610323610a27565b005b34801561033157600080fd5b5061033a610aaf565b60405161034791906125c1565b60405180910390f35b34801561035c57600080fd5b50610365610ad9565b6040516103729190612643565b60405180910390f35b34801561038757600080fd5b506103a2600480360381019061039d91906120ed565b610b6b565b005b3480156103b057600080fd5b506103cb60048036038101906103c69190612072565b610b81565b005b3480156103d957600080fd5b506103f460048036038101906103ef919061220b565b610be3565b6040516104019190612643565b60405180910390f35b34801561041657600080fd5b50610431600480360381019061042c9190612129565b610bf5565b005b34801561043f57600080fd5b5061045a60048036038101906104559190611fe7565b610ca2565b6040516104679190612628565b60405180910390f35b34801561047c57600080fd5b5061049760048036038101906104929190611fbe565b610d36565b005b60007f80ac58cd000000000000000000000000000000000000000000000000000000007bffffffffffffffffffffffffffffffffffffffffffffffffffffffff1916827bffffffffffffffffffffffffffffffffffffffffffffffffffffffff1916148061056457507f5b5e139f000000000000000000000000000000000000000000000000000000007bffffffffffffffffffffffffffffffffffffffffffffffffffffffff1916827bffffffffffffffffffffffffffffffffffffffffffffffffffffffff1916145b80610574575061057382610e2e565b5b9050919050565b60006105876008610e98565b905090565b60606000805461059b90612b1b565b80601f01602080910402602001604051908101604052809291908181526020018280546105c790612b1b565b80156106145780601f106105e957610100808354040283529160200191610614565b820191906000526020600020905b8154815290600101906020018083116105f757829003601f168201915b5050505050905090565b600061062982610ea6565b610668576040517f08c379a000000000000000000000000000000000000000000000000000000000815260040161065f90612805565b60405180910390fd5b6004600083815260200190815260200160002060009054906101000a900473ffffffffffffffffffffffffffffffffffffffff169050919050565b60006106ae826108bd565b90508073ffffffffffffffffffffffffffffffffffffffff168373ffffffffffffffffffffffffffffffffffffffff16141561071f576040517f08c379a000000000000000000000000000000000000000000000000000000000815260040161071690612885565b60405180910390fd5b8073ffffffffffffffffffffffffffffffffffffffff1661073e610f12565b73ffffffffffffffffffffffffffffffffffffffff16148061076d575061076c81610767610f12565b610ca2565b5b6107ac576040517f08c379a00000000000000000000000000000000000000000000000000000000081526004016107a390612745565b60405180910390fd5b6107b68383610f1a565b505050565b6107cc6107c6610f12565b82610fd3565b61080b576040517f08c379a0000000000000000000000000000000000000000000000000000000008152600401610802906128a5565b60405180910390fd5b6108168383836110b1565b505050565b61083683838360405180602001604052806000815250610b81565b505050565b60006611c37937e08000341015610887576040517f08c379a000000000000000000000000000000000000000000000000000000000815260040161087e90612665565b60405180910390fd5b60006108936008610e98565b905061089f600861130d565b6108a98482611323565b6108b381846114f1565b8091505092915050565b6000806002600084815260200190815260200160002060009054906101000a900473ffffffffffffffffffffffffffffffffffffffff169050600073ffffffffffffffffffffffffffffffffffffffff168173ffffffffffffffffffffffffffffffffffffffff161415610966576040517f08c379a000000000000000000000000000000000000000000000000000000000815260040161095d90612785565b60405180910390fd5b80915050919050565b60008073ffffffffffffffffffffffffffffffffffffffff168273ffffffffffffffffffffffffffffffffffffffff1614156109e0576040517f08c379a00000000000000000000000000000000000000000000000000000000081526004016109d790612765565b60405180910390fd5b600360008373ffffffffffffffffffffffffffffffffffffffff1673ffffffffffffffffffffffffffffffffffffffff168152602001908152602001600020549050919050565b610a2f610f12565b73ffffffffffffffffffffffffffffffffffffffff16610a4d610aaf565b73ffffffffffffffffffffffffffffffffffffffff1614610aa3576040517f08c379a0000000000000000000000000000000000000000000000000000000008152600401610a9a90612825565b60405180910390fd5b610aad6000611565565b565b6000600760009054906101000a900473ffffffffffffffffffffffffffffffffffffffff16905090565b606060018054610ae890612b1b565b80601f0160208091040260200160405190810160405280929190818152602001828054610b1490612b1b565b8015610b615780601f10610b3657610100808354040283529160200191610b61565b820191906000526020600020905b815481529060010190602001808311610b4457829003601f168201915b5050505050905090565b610b7d610b76610f12565b838361162b565b5050565b610b92610b8c610f12565b83610fd3565b610bd1576040517f08c379a0000000000000000000000000000000000000000000000000000000008152600401610bc8906128a5565b60405180910390fd5b610bdd84848484611798565b50505050565b6060610bee826117f4565b9050919050565b610bfd610f12565b73ffffffffffffffffffffffffffffffffffffffff16610c1b610aaf565b73ffffffffffffffffffffffffffffffffffffffff1614610c71576040517f08c379a0000000000000000000000000000000000000000000000000000000008152600401610c6890612825565b60405180910390fd5b6000610c7d6008610e98565b9050610c89600861130d565b610c938382611946565b610c9d81836114f1565b505050565b6000600560008473ffffffffffffffffffffffffffffffffffffffff1673ffffffffffffffffffffffffffffffffffffffff16815260200190815260200160002060008373ffffffffffffffffffffffffffffffffffffffff1673ffffffffffffffffffffffffffffffffffffffff16815260200190815260200160002060009054906101000a900460ff16905092915050565b610d3e610f12565b73ffffffffffffffffffffffffffffffffffffffff16610d5c610aaf565b73ffffffffffffffffffffffffffffffffffffffff1614610db2576040517f08c379a0000000000000000000000000000000000000000000000000000000008152600401610da990612825565b60405180910390fd5b600073ffffffffffffffffffffffffffffffffffffffff168173ffffffffffffffffffffffffffffffffffffffff161415610e22576040517f08c379a0000000000000000000000000000000000000000000000000000000008152600401610e19906126a5565b60405180910390fd5b610e2b81611565565b50565b60007f01ffc9a7000000000000000000000000000000000000000000000000000000007bffffffffffffffffffffffffffffffffffffffffffffffffffffffff1916827bffffffffffffffffffffffffffffffffffffffffffffffffffffffff1916149050919050565b600081600001549050919050565b60008073ffffffffffffffffffffffffffffffffffffffff166002600084815260200190815260200160002060009054906101000a900473ffffffffffffffffffffffffffffffffffffffff1673ffffffffffffffffffffffffffffffffffffffff1614159050919050565b600033905090565b816004600083815260200190815260200160002060006101000a81548173ffffffffffffffffffffffffffffffffffffffff021916908373ffffffffffffffffffffffffffffffffffffffff160217905550808273ffffffffffffffffffffffffffffffffffffffff16610f8d836108bd565b73ffffffffffffffffffffffffffffffffffffffff167f8c5be1e5ebec7d5bd14f71427d1e84f3dd0314c0f7b2291e5b200ac8c7c3b92560405160405180910390a45050565b6000610fde82610ea6565b61101d576040517f08c379a000000000000000000000000000000000000000000000000000000000815260040161101490612725565b60405180910390fd5b6000611028836108bd565b90508073ffffffffffffffffffffffffffffffffffffffff168473ffffffffffffffffffffffffffffffffffffffff16148061109757508373ffffffffffffffffffffffffffffffffffffffff1661107f8461061e565b73ffffffffffffffffffffffffffffffffffffffff16145b806110a857506110a78185610ca2565b5b91505092915050565b8273ffffffffffffffffffffffffffffffffffffffff166110d1826108bd565b73ffffffffffffffffffffffffffffffffffffffff1614611127576040517f08c379a000000000000000000000000000000000000000000000000000000000815260040161111e90612845565b60405180910390fd5b600073ffffffffffffffffffffffffffffffffffffffff168273ffffffffffffffffffffffffffffffffffffffff161415611197576040517f08c379a000000000000000000000000000000000000000000000000000000000815260040161118e906126e5565b60405180910390fd5b6111a2838383611964565b6111ad600082610f1a565b6001600360008573ffffffffffffffffffffffffffffffffffffffff1673ffffffffffffffffffffffffffffffffffffffff16815260200190815260200160002060008282546111fd9190612a31565b925050819055506001600360008473ffffffffffffffffffffffffffffffffffffffff1673ffffffffffffffffffffffffffffffffffffffff168152602001908152602001600020600082825461125491906129aa565b92505081905550816002600083815260200190815260200160002060006101000a81548173ffffffffffffffffffffffffffffffffffffffff021916908373ffffffffffffffffffffffffffffffffffffffff160217905550808273ffffffffffffffffffffffffffffffffffffffff168473ffffffffffffffffffffffffffffffffffffffff167fddf252ad1be2c89b69c2b068fc378daa952ba7f163c4a11628f55a4df523b3ef60405160405180910390a4505050565b6001816000016000828254019250508190555050565b600073ffffffffffffffffffffffffffffffffffffffff168273ffffffffffffffffffffffffffffffffffffffff161415611393576040517f08c379a000000000000000000000000000000000000000000000000000000000815260040161138a906127c5565b60405180910390fd5b61139c81610ea6565b156113dc576040517f08c379a00000000000000000000000000000000000000000000000000000000081526004016113d3906126c5565b60405180910390fd5b6113e860008383611964565b6001600360008473ffffffffffffffffffffffffffffffffffffffff1673ffffffffffffffffffffffffffffffffffffffff168152602001908152602001600020600082825461143891906129aa565b92505081905550816002600083815260200190815260200160002060006101000a81548173ffffffffffffffffffffffffffffffffffffffff021916908373ffffffffffffffffffffffffffffffffffffffff160217905550808273ffffffffffffffffffffffffffffffffffffffff16600073ffffffffffffffffffffffffffffffffffffffff167fddf252ad1be2c89b69c2b068fc378daa952ba7f163c4a11628f55a4df523b3ef60405160405180910390a45050565b6114fa82610ea6565b611539576040517f08c379a0000000000000000000000000000000000000000000000000000000008152600401611530906127a5565b60405180910390fd5b80600660008481526020019081526020016000209080519060200190611560929190611de2565b505050565b6000600760009054906101000a900473ffffffffffffffffffffffffffffffffffffffff16905081600760006101000a81548173ffffffffffffffffffffffffffffffffffffffff021916908373ffffffffffffffffffffffffffffffffffffffff1602179055508173ffffffffffffffffffffffffffffffffffffffff168173ffffffffffffffffffffffffffffffffffffffff167f8be0079c531659141344cd1fd0a4f28419497f9722a3daafe3b4186f6b6457e060405160405180910390a35050565b8173ffffffffffffffffffffffffffffffffffffffff168373ffffffffffffffffffffffffffffffffffffffff16141561169a576040517f08c379a000000000000000000000000000000000000000000000000000000000815260040161169190612705565b60405180910390fd5b80600560008573ffffffffffffffffffffffffffffffffffffffff1673ffffffffffffffffffffffffffffffffffffffff16815260200190815260200160002060008473ffffffffffffffffffffffffffffffffffffffff1673ffffffffffffffffffffffffffffffffffffffff16815260200190815260200160002060006101000a81548160ff0219169083151502179055508173ffffffffffffffffffffffffffffffffffffffff168373ffffffffffffffffffffffffffffffffffffffff167f17307eab39ab6107e8899845ad3d59bd9653f200f220920489ca2b5937696c318360405161178b9190612628565b60405180910390a3505050565b6117a38484846110b1565b6117af84848484611969565b6117ee576040517f08c379a00000000000000000000000000000000000000000000000000000000081526004016117e590612685565b60405180910390fd5b50505050565b60606117ff82610ea6565b61183e576040517f08c379a0000000000000000000000000000000000000000000000000000000008152600401611835906127e5565b60405180910390fd5b600060066000848152602001908152602001600020805461185e90612b1b565b80601f016020809104026020016040519081016040528092919081815260200182805461188a90612b1b565b80156118d75780601f106118ac576101008083540402835291602001916118d7565b820191906000526020600020905b8154815290600101906020018083116118ba57829003601f168201915b5050505050905060006118e8611b00565b90506000815114156118fe578192505050611941565b60008251111561193357808260405160200161191b92919061259d565b60405160208183030381529060405292505050611941565b61193c84611b20565b925050505b919050565b611960828260405180602001604052806000815250611bc7565b5050565b505050565b600061198a8473ffffffffffffffffffffffffffffffffffffffff16611c22565b15611af3578373ffffffffffffffffffffffffffffffffffffffff1663150b7a026119b3610f12565b8786866040518563ffffffff1660e01b81526004016119d594939291906125dc565b602060405180830381600087803b1580156119ef57600080fd5b505af1925050508015611a2057506040513d601f19601f82011682018060405250810190611a1d91906121e2565b60015b611aa3573d8060008114611a50576040519150601f19603f3d011682016040523d82523d6000602084013e611a55565b606091505b50600081511415611a9b576040517f08c379a0000000000000000000000000000000000000000000000000000000008152600401611a9290612685565b60405180910390fd5b805181602001fd5b63150b7a0260e01b7bffffffffffffffffffffffffffffffffffffffffffffffffffffffff1916817bffffffffffffffffffffffffffffffffffffffffffffffffffffffff191614915050611af8565b600190505b949350505050565b606060405180606001604052806026815260200161324160269139905090565b6060611b2b82610ea6565b611b6a576040517f08c379a0000000000000000000000000000000000000000000000000000000008152600401611b6190612865565b60405180910390fd5b6000611b74611b00565b90506000815111611b945760405180602001604052806000815250611bbf565b80611b9e84611c35565b604051602001611baf92919061259d565b6040516020818303038152906040525b915050919050565b611bd18383611323565b611bde6000848484611969565b611c1d576040517f08c379a0000000000000000000000000000000000000000000000000000000008152600401611c1490612685565b60405180910390fd5b505050565b600080823b905060008111915050919050565b60606000821415611c7d576040518060400160405280600181526020017f30000000000000000000000000000000000000000000000000000000000000008152509050611ddd565b600082905060005b60008214611caf578080611c9890612b7e565b915050600a82611ca89190612a00565b9150611c85565b60008167ffffffffffffffff811115611cf1577f4e487b7100000000000000000000000000000000000000000000000000000000600052604160045260246000fd5b6040519080825280601f01601f191660200182016040528015611d235781602001600182028036833780820191505090505b5090505b60008514611dd657600182611d3c9190612a31565b9150600a85611d4b9190612bc7565b6030611d5791906129aa565b60f81b818381518110611d93577f4e487b7100000000000000000000000000000000000000000000000000000000600052603260045260246000fd5b60200101907effffffffffffffffffffffffffffffffffffffffffffffffffffffffffffff1916908160001a905350600a85611dcf9190612a00565b9450611d27565b8093505050505b919050565b828054611dee90612b1b565b90600052602060002090601f016020900481019282611e105760008555611e57565b82601f10611e2957805160ff1916838001178555611e57565b82800160010185558215611e57579182015b82811115611e56578251825591602001919060010190611e3b565b5b509050611e649190611e68565b5090565b5b80821115611e81576000816000905550600101611e69565b5090565b6000611e98611e9384612905565b6128e0565b905082815260208101848484011115611eb057600080fd5b611ebb848285612ad9565b509392505050565b6000611ed6611ed184612936565b6128e0565b905082815260208101848484011115611eee57600080fd5b611ef9848285612ad9565b509392505050565b600081359050611f10816131e4565b92915050565b600081359050611f25816131fb565b92915050565b600081359050611f3a81613212565b92915050565b600081519050611f4f81613212565b92915050565b600082601f830112611f6657600080fd5b8135611f76848260208601611e85565b91505092915050565b600082601f830112611f9057600080fd5b8135611fa0848260208601611ec3565b91505092915050565b600081359050611fb881613229565b92915050565b600060208284031215611fd057600080fd5b6000611fde84828501611f01565b91505092915050565b60008060408385031215611ffa57600080fd5b600061200885828601611f01565b925050602061201985828601611f01565b9150509250929050565b60008060006060848603121561203857600080fd5b600061204686828701611f01565b935050602061205786828701611f01565b925050604061206886828701611fa9565b9150509250925092565b6000806000806080858703121561208857600080fd5b600061209687828801611f01565b94505060206120a787828801611f01565b93505060406120b887828801611fa9565b925050606085013567ffffffffffffffff8111156120d557600080fd5b6120e187828801611f55565b91505092959194509250565b6000806040838503121561210057600080fd5b600061210e85828601611f01565b925050602061211f85828601611f16565b9150509250929050565b6000806040838503121561213c57600080fd5b600061214a85828601611f01565b925050602083013567ffffffffffffffff81111561216757600080fd5b61217385828601611f7f565b9150509250929050565b6000806040838503121561219057600080fd5b600061219e85828601611f01565b92505060206121af85828601611fa9565b9150509250929050565b6000602082840312156121cb57600080fd5b60006121d984828501611f2b565b91505092915050565b6000602082840312156121f457600080fd5b600061220284828501611f40565b91505092915050565b60006020828403121561221d57600080fd5b600061222b84828501611fa9565b91505092915050565b61223d81612a65565b82525050565b61224c81612a77565b82525050565b600061225d82612967565b612267818561297d565b9350612277818560208601612ae8565b61228081612cb4565b840191505092915050565b600061229682612972565b6122a0818561298e565b93506122b0818560208601612ae8565b6122b981612cb4565b840191505092915050565b60006122cf82612972565b6122d9818561299f565b93506122e9818560208601612ae8565b80840191505092915050565b600061230260098361298e565b915061230d82612cc5565b602082019050919050565b600061232560328361298e565b915061233082612cee565b604082019050919050565b600061234860268361298e565b915061235382612d3d565b604082019050919050565b600061236b601c8361298e565b915061237682612d8c565b602082019050919050565b600061238e60248361298e565b915061239982612db5565b604082019050919050565b60006123b160198361298e565b91506123bc82612e04565b602082019050919050565b60006123d4602c8361298e565b91506123df82612e2d565b604082019050919050565b60006123f760388361298e565b915061240282612e7c565b604082019050919050565b600061241a602a8361298e565b915061242582612ecb565b604082019050919050565b600061243d60298361298e565b915061244882612f1a565b604082019050919050565b6000612460602e8361298e565b915061246b82612f69565b604082019050919050565b600061248360208361298e565b915061248e82612fb8565b602082019050919050565b60006124a660318361298e565b91506124b182612fe1565b604082019050919050565b60006124c9602c8361298e565b91506124d482613030565b604082019050919050565b60006124ec60208361298e565b91506124f78261307f565b602082019050919050565b600061250f60298361298e565b915061251a826130a8565b604082019050919050565b6000612532602f8361298e565b915061253d826130f7565b604082019050919050565b600061255560218361298e565b915061256082613146565b604082019050919050565b600061257860318361298e565b915061258382613195565b604082019050919050565b61259781612acf565b82525050565b60006125a982856122c4565b91506125b582846122c4565b91508190509392505050565b60006020820190506125d66000830184612234565b92915050565b60006080820190506125f16000830187612234565b6125fe6020830186612234565b61260b604083018561258e565b818103606083015261261d8184612252565b905095945050505050565b600060208201905061263d6000830184612243565b92915050565b6000602082019050818103600083015261265d818461228b565b905092915050565b6000602082019050818103600083015261267e816122f5565b9050919050565b6000602082019050818103600083015261269e81612318565b9050919050565b600060208201905081810360008301526126be8161233b565b9050919050565b600060208201905081810360008301526126de8161235e565b9050919050565b600060208201905081810360008301526126fe81612381565b9050919050565b6000602082019050818103600083015261271e816123a4565b9050919050565b6000602082019050818103600083015261273e816123c7565b9050919050565b6000602082019050818103600083015261275e816123ea565b9050919050565b6000602082019050818103600083015261277e8161240d565b9050919050565b6000602082019050818103600083015261279e81612430565b9050919050565b600060208201905081810360008301526127be81612453565b9050919050565b600060208201905081810360008301526127de81612476565b9050919050565b600060208201905081810360008301526127fe81612499565b9050919050565b6000602082019050818103600083015261281e816124bc565b9050919050565b6000602082019050818103600083015261283e816124df565b9050919050565b6000602082019050818103600083015261285e81612502565b9050919050565b6000602082019050818103600083015261287e81612525565b9050919050565b6000602082019050818103600083015261289e81612548565b9050919050565b600060208201905081810360008301526128be8161256b565b9050919050565b60006020820190506128da600083018461258e565b92915050565b60006128ea6128fb565b90506128f68282612b4d565b919050565b6000604051905090565b600067ffffffffffffffff8211156129205761291f612c85565b5b61292982612cb4565b9050602081019050919050565b600067ffffffffffffffff82111561295157612950612c85565b5b61295a82612cb4565b9050602081019050919050565b600081519050919050565b600081519050919050565b600082825260208201905092915050565b600082825260208201905092915050565b600081905092915050565b60006129b582612acf565b91506129c083612acf565b9250827fffffffffffffffffffffffffffffffffffffffffffffffffffffffffffffffff038211156129f5576129f4612bf8565b5b828201905092915050565b6000612a0b82612acf565b9150612a1683612acf565b925082612a2657612a25612c27565b5b828204905092915050565b6000612a3c82612acf565b9150612a4783612acf565b925082821015612a5a57612a59612bf8565b5b828203905092915050565b6000612a7082612aaf565b9050919050565b60008115159050919050565b60007fffffffff0000000000000000000000000000000000000000000000000000000082169050919050565b600073ffffffffffffffffffffffffffffffffffffffff82169050919050565b6000819050919050565b82818337600083830152505050565b60005b83811015612b06578082015181840152602081019050612aeb565b83811115612b15576000848401525b50505050565b60006002820490506001821680612b3357607f821691505b60208210811415612b4757612b46612c56565b5b50919050565b612b5682612cb4565b810181811067ffffffffffffffff82111715612b7557612b74612c85565b5b80604052505050565b6000612b8982612acf565b91507fffffffffffffffffffffffffffffffffffffffffffffffffffffffffffffffff821415612bbc57612bbb612bf8565b5b600182019050919050565b6000612bd282612acf565b9150612bdd83612acf565b925082612bed57612bec612c27565b5b828206905092915050565b7f4e487b7100000000000000000000000000000000000000000000000000000000600052601160045260246000fd5b7f4e487b7100000000000000000000000000000000000000000000000000000000600052601260045260246000fd5b7f4e487b7100000000000000000000000000000000000000000000000000000000600052602260045260246000fd5b7f4e487b7100000000000000000000000000000000000000000000000000000000600052604160045260246000fd5b6000601f19601f8301169050919050565b7f4e6f204361736821210000000000000000000000000000000000000000000000600082015250565b7f4552433732313a207472616e7366657220746f206e6f6e20455243373231526560008201527f63656976657220696d706c656d656e7465720000000000000000000000000000602082015250565b7f4f776e61626c653a206e6577206f776e657220697320746865207a65726f206160008201527f6464726573730000000000000000000000000000000000000000000000000000602082015250565b7f4552433732313a20746f6b656e20616c7265616479206d696e74656400000000600082015250565b7f4552433732313a207472616e7366657220746f20746865207a65726f2061646460008201527f7265737300000000000000000000000000000000000000000000000000000000602082015250565b7f4552433732313a20617070726f766520746f2063616c6c657200000000000000600082015250565b7f4552433732313a206f70657261746f7220717565727920666f72206e6f6e657860008201527f697374656e7420746f6b656e0000000000000000000000000000000000000000602082015250565b7f4552433732313a20617070726f76652063616c6c6572206973206e6f74206f7760008201527f6e6572206e6f7220617070726f76656420666f7220616c6c0000000000000000602082015250565b7f4552433732313a2062616c616e636520717565727920666f7220746865207a6560008201527f726f206164647265737300000000000000000000000000000000000000000000602082015250565b7f4552433732313a206f776e657220717565727920666f72206e6f6e657869737460008201527f656e7420746f6b656e0000000000000000000000000000000000000000000000602082015250565b7f45524337323155524953746f726167653a2055524920736574206f66206e6f6e60008201527f6578697374656e7420746f6b656e000000000000000000000000000000000000602082015250565b7f4552433732313a206d696e7420746f20746865207a65726f2061646472657373600082015250565b7f45524337323155524953746f726167653a2055524920717565727920666f722060008201527f6e6f6e6578697374656e7420746f6b656e000000000000000000000000000000602082015250565b7f4552433732313a20617070726f76656420717565727920666f72206e6f6e657860008201527f697374656e7420746f6b656e0000000000000000000000000000000000000000602082015250565b7f4f776e61626c653a2063616c6c6572206973206e6f7420746865206f776e6572600082015250565b7f4552433732313a207472616e73666572206f6620746f6b656e2074686174206960008201527f73206e6f74206f776e0000000000000000000000000000000000000000000000602082015250565b7f4552433732314d657461646174613a2055524920717565727920666f72206e6f60008201527f6e6578697374656e7420746f6b656e0000000000000000000000000000000000602082015250565b7f4552433732313a20617070726f76616c20746f2063757272656e74206f776e6560008201527f7200000000000000000000000000000000000000000000000000000000000000602082015250565b7f4552433732313a207472616e736665722063616c6c6572206973206e6f74206f60008201527f776e6572206e6f7220617070726f766564000000000000000000000000000000602082015250565b6131ed81612a65565b81146131f857600080fd5b50565b61320481612a77565b811461320f57600080fd5b50565b61321b81612a83565b811461322657600080fd5b50565b61323281612acf565b811461323d57600080fd5b5056fe68747470733a2f2f6365727469737572652e696e667572612d697066732e696f2f697066732fa26469706673582212203326305225ba2452e366f3ca614c494610e0ef215d34703c8fb5b82871f7190464736f6c63430008040033",
  "linkReferences": {},
  "deployedLinkReferences": {}
}